:020000040800F2
:10000000000003203D4D0008E9090008EB09000845
:10001000ED090008EF090008F109000800000000E0
:10002000000000000000000000000000B1370008E0
:10003000F3090008000000005138000837330008B9
:100040008D4D00088D4D00088D4D00088D4D000828
:100050008D4D00088D4D00088D4D00088D4D000818
:100060008D4D00088D4D00088D4D00088D4D000808
:10007000F50900088D4D0008050A00088D4D00089F
:100080008D4D00088D4D00088D4D00088D4D0008E8
:100090008D4D00088D4D00088D4D00088D4D0008D8
:1000A0008D4D0008150A00088D4D00088D4D000883
:1000B0008D4D00088D4D00088D4D00088D4D0008B8
:1000C0008D4D00088D4D00088D4D00088D4D0008A8
:1000D0008D4D00088D4D00088D4D0008250A000843
:1000E0008D4D00088D4D00088D4D00088D4D000888
:1000F0008D4D00088D4D00088D4D00088D4D000878
:100100008D4D00088D4D00088D4D00088D4D000867
:100110008D4D00088D4D00088D4D00088D4D000857
:100120008D4D00088D4D00088D4D00088D4D000847
:100130008D4D0008350A00088D4D00088D4D0008D2
:100140008D4D00088D4D00088D4D00088D4D000827
:100150008D4D00088D4D00088D4D00088D4D000817
:100160008D4D00088D4D00088D4D00088D4D000807
:100170008D4D00088D4D00088D4D000800000000D9
:100180008D4D00088D4D00088D4D00088D4D0008E7
:100190008D4D00088D4D00088D4D00088D4D0008D7
:0C01A0008D4D00088D4D00088D4D0008AD
:1001B00010B5054C237833B9044B13B10448AFF3A1
:1001C00000800123237010BD1001002000000000FA
:1001D000C8FC000808B5034B1BB103490348AFF343
:1001E000008008BD0000000014010020C8FC0008C9
:1001F00001F0FF01102A2BDB10F0070F08D010F8D8
:10020000013B013A8B422DD010F0070F42B3F6D1DB
:10021000F0B441EA012141EA014122F007047FF0F4
:1002200000070023F0E80256083C85EA010586EA4B
:10023000010685FA47F5A3FA87F586FA47F6A5FA87
:1002400087F68EB9EED1F0BC01F0FF0102F0070293
:1002500032B110F8013B013A83EA010313B1F8D13E
:100260000020704701387047002D06BF354603381F
:10027000073815F0010F07D1013015F4807F02BF58
:10028000013015F4C03F0130F0BC0138704700BFA9
:100290007BB972B90029BEBF00204FF0004106E0D3
:1002A00008BF00281CBF6FF000414FF0FF3000F086
:1002B000B5B9ADF1080C6DE904CE002909DB002BBE
:1002C0001ADB00F04DF8DDF804E0DDE9022304B0AC
:1002D0007047404261EB4101002B1BDB00F040F80E
:1002E000DDF804E0DDE9022304B0404261EB4101A6
:1002F000524263EB43037047524263EB430300F007
:100300002FF8DDF804E0DDE9022304B0404261EBA0
:1003100041017047524263EB430300F021F8DDF8DE
:1003200004E0DDE9022304B0524263EB430370476B
:1003300053B94AB9002908BF00281CBF4FF0FF314C
:100340004FF0FF3000F06AB9ADF1080C6DE904CE52
:1003500000F006F8DDF804E0DDE9022304B07047A0
:100360002DE9F047089D0C46002B4ED194468C4554
:100370008646B2FA82F262D94AB1C2F120039140B4
:1003800020FA03F30CFA02FC194300FA02FE4FEACA
:100390001C471FFA8CF6B1FBF7F44FEA1E4307FB2C
:1003A000141143EA014304FB06F199420AD91CEBFC
:1003B000030304F1FF3080F01281994240F20F8173
:1003C000023C6344591A1FFA8EF3B1FBF7F007FBA6
:1003D000101143EA014300FB06F69E420AD91CEBCA
:1003E000030300F1FF3180F0FC809E4240F2F9806F
:1003F000634402389B1B40EA044000211DB1D340F6
:100400000022C5E90032BDE8F0878B4205D90DB165
:10041000C5E9000100210846F5E7B3FA83F1002998
:1004200046D1A34202D39042C0F0F080861A64EB1A
:1004300003030120002DE6D0C5E90063E3E7002AAD
:1004400040F09080A1EB0C044FEA1C481FFA8CF797
:100450000121B4FBF8F64FEA1E4308FB164443EAB9
:10046000044307FB06F0984208D91CEB030306F18E
:10047000FF3402D2984200F2CD8026461C1A1FFAA1
:100480008EF3B4FBF8F008FB104443EA044300FB8E
:1004900007F79F4208D91CEB030300F1FF3402D297
:1004A0009F4200F2B0802046DB1B40EA0640A5E7F1
:1004B000C1F120068B4022FA06F71F4320FA06FC02
:1004C00004FA01F343EA0C03F44000FA01F8380C93
:1004D0004FEA1349B4FBF0FE1FFA87FC00FB1E44F1
:1004E00049EA04440EFB0CF9A14502FA01F20AD9CB
:1004F0003C190EF1FF3A80F08480A14540F28180E2
:10050000AEF1020E3C44A4EB09041FFA83F9B4FBDC
:10051000F0F300FB134449EA044403FB0CFCA4453C
:1005200007D93C1903F1FF3067D2A44565D9023BD6
:100530003C4443EA0E40A0FB0293A4EB0C049C4213
:10054000CE469C4651D34ED055B1B8EB0E0364EB6A
:100550000C0404FA06F6CB401E43CC40C5E9006407
:10056000002150E7C2F1200320FA03F10CFA02FC4B
:1005700024FA03F394400C434FEA1C4800FA02FEAD
:100580001FFA8CF7B3FBF8F008FB1031230C43EA99
:10059000014300FB07F1994208D91CEB030300F16A
:1005A000FF362CD299422AD9023863445B1AA4B28E
:1005B000B3FBF8F108FB113344EA034401FB07F3F2
:1005C000A34208D91CEB040401F1FF3613D2A34265
:1005D00011D902396444E41A41EA004139E704467A
:1005E000F0E6084606E7C845AED2B9EB020E63EB6B
:1005F000070C0138A8E73146EDE7034699E7304696
:10060000D4E7D6467FE7634402384DE706462346E3
:1006100008460FE7023E634430E700BF704700BF63
:1006200010F8012B11F8013B012A28BF9A42F7D09C
:10063000D01A7047034613F8012B002AFBD1181A71
:100640000138704708B50268034B9A4200D008BDD4
:1006500001F0F4F9FBE700BF0000014072B6FEE7CD
:1006600000B595B03022002108A804F0A8FC0023B2
:10067000039304930593069307930193234A116C04
:1006800041F080511164126C02F080520192019A83
:1006900002931F4B1A6842F440421A601B6803F42D
:1006A00040430293029B012308934FF48033099344
:1006B00002230E934FF480020F92082210924FF4FF
:1006C000B472119212930423139308A800F028FA2D
:1006D000B0B901F0F3F8A8B90F23039302230493F0
:1006E000002305934FF4A05306934FF480530793D0
:1006F000052103A800F07EFC30B915B05DF804FBBD
:10070000FFF7ACFFFFF7AAFFFFF7A8FF0038024092
:100710000070004008B501F077F9FFF7A1FF00F085
:100720000BF803F009FA03F029FA02F011FE00F0C9
:100730004BF902F01FFEFEE7F0B58DB000240794E0
:10074000089409940A940B9400944A4B1A6B42F053
:1007500010021A631A6B02F010020092009A0194C0
:100760001A6B42F004021A631A6B02F0040201923F
:10077000019A02941A6B42F080021A631A6B02F01B
:1007800080020292029A03941A6B42F001021A63E9
:100790001A6B02F001020392039A04941A6B42F05E
:1007A00002021A631A6B02F002020492049A059480
:1007B0001A6B42F008021A631A6B02F008020592E3
:1007C000059A06941A6B42F040021A631B6B03F001
:1007D00040030693069B284F22464FF4814138463A
:1007E00000F000FE254D22464021284600F0FAFD8B
:1007F0004FF4005307934FF488130893099407A903
:100800001F4800F0EBFC4FF4814307930126089644
:1008100009940A9407A9384600F0E0FC40230793A6
:10082000089609940A9407A9284600F0D7FC80236B
:1008300007930894099407A9284600F0CFFC4FF4C9
:10084000E853079302230893099403230A930A2386
:100850000B93A5F5C05507A9284600F0BFFC4FF43F
:10086000007307930894099407A9284600F0B6FC82
:100870000DB0F0BD003802400004024000180240F4
:100880000008024030B5B7B0374B0193374B0093A7
:10089000374B384A3849012006F0EEFD31A806F002
:1008A0004BFB364B3193364B3293364B3393364BAF
:1008B000349331A806F04EFB002835D002A806F08C
:1008C00067FB0DF1700E0DF1080CBCE80F00AEE8EF
:1008D0000F00DCF80030CEF800301CAB00221146CF
:1008E00021A805F0E3F9294D294C21AB2A462146E0
:1008F0001AA805F025FA21AB2A46214618A805F0CA
:100900001FFA08F0D7F90246224B1AA92FA805F0C2
:10091000C3FA08F0CFF902461F4B18A930A805F01A
:10092000EFFA00232E930BE0A9211C4804F0F2FA01
:10093000C4E7DF211A4804F0EDFA0A2002F094FD22
:10094000002308AA2EA930A806F09CF90028F0D1AF
:1009500000222EA92FA805F099FF0028EDD0DA215A
:10096000104804F0D7FAE8E7C54C0008874C0008A7
:10097000794C0008614C0008944B0020FD4A0008A7
:100980001D4B00083D4B00087D4B000880FD000812
:1009900014FD000820FD000834FD0008ECFC0008F0
:1009A00064FD000848FD000800B583B001904FF0D9
:1009B000FF33012201A9034803F0E5FA019803B0CF
:1009C0005DF804FB944B002008B5044A002104485C
:1009D00002F0ECFC034B186008BD00BF9CFD000852
:1009E000850800082C010020FEE7FEE7FEE7FEE791
:1009F000FEE7704708B5024800F072FE08BD00BF70
:100A0000344B002008B5024800F06AFE08BD00BF64
:100A1000D44A002008B5024801F06CF808BD00BFB8
:100A20003001002008B5024803F07EFC08BD00BF7D
:100A3000944B002008B5024803F07EFE08BD00BFBD
:100A4000DC4B002000B583B0002200920D4B596CA6
:100A500041F480415964596C01F48041009100993E
:100A60000192196C41F0805119641B6C03F08053A2
:100A70000193019B0F216FF0010000F0B1FF03B063
:100A80005DF804FB0038024030B589B0054600240B
:100A900001941E4B5A6C42F001025A645B6C03F0E5
:100AA00001030193019B02A903A800F079FB00F068
:100AB00067FB4300164AA2FB03239B0C013B15482E
:100AC000154A026040F2E732C2604360046184600C
:100AD000846101F02BF9044610B1204609B030BD05
:100AE0000C4800F0BFFF04460028F6D1192000F0A2
:100AF00087FF0F2D01D90124EFE700222946192095
:100B000000F06EFF054B1D60E7E700BF00380240B4
:100B100083DE1B4330010020000001400400002060
:100B2000002800F0E08170B582B00446036813F03D
:100B3000010F3BD09F4B9B6803F00C03042B2CD080
:100B40009C4B9B6803F00C03082B21D06368B3F522
:100B5000803F4FD0B3F5A02F52D0964B1A6822F4A5
:100B600080321A601A6822F480221A606368002BAF
:100B700050D000F06FFF05468E4B1B6813F4003F0A
:100B800014D100F067FF401B6428F5D90320B1E1C0
:100B9000884B5B6813F4800FD8D0864B1B6813F426
:100BA000003F03D06368002B00F09F81236813F09F
:100BB000020F54D07F4B9B6813F00C0F3ED07D4B3F
:100BC0009B6803F00C03082B33D0E368002B68D03C
:100BD000794B01221A6000F03DFF0546754B1B68FA
:100BE00013F0020F54D100F035FF401B0228F5D955
:100BF00003207FE16F4A136843F480331360B5E745
:100C00006C4B1A6842F480221A601A6842F48032EF
:100C10001A60ABE700F01EFF0546664B1B6813F435
:100C2000003FC3D000F016FF401B6428F5D9032015
:100C300060E1604B5B6813F4800FC6D15D4B1B68AD
:100C400013F0020F03D0E368012B40F05081594AA2
:100C5000136823F0F803216943EAC1031360236892
:100C600013F0080F42D063696BB3534B0122C3F8F2
:100C7000802E00F0EFFE05464E4B5B6F13F0020F27
:100C800034D100F0E7FE401B0228F5D9032031E102
:100C9000484A136823F0F803216943EAC10313604B
:100CA000DDE7454B00221A6000F0D4FE0546414BBB
:100CB0001B6813F0020FD2D000F0CCFE401B0228BC
:100CC000F5D9032016E13C4B0022C3F8802E00F03A
:100CD000C1FE0546374B5B6F13F0020F06D000F0E4
:100CE000B9FE401B0228F5D9032003E1236813F065
:100CF000040F77D02F4B1B6C13F0805F33D1002390
:100D000001932C4B1A6C42F080521A641B6C03F056
:100D100080530193019B0125284B1B6813F4807FAE
:100D200023D0A368012B34D0052B38D0214B1A6F68
:100D300022F001021A671A6F22F004021A67A368F0
:100D4000002B3DD000F086FE06461A4B1B6F13F0B9
:100D5000020F46D100F07EFE801B41F2883398429C
:100D6000F3D90320C6E00025D6E7144A136843F4FC
:100D70008073136000F06EFE0646104B1B6813F480
:100D8000807FCED100F066FE801B0228F5D90320BB
:100D9000B0E0084A136F43F001031367CFE7054B38
:100DA0001A6F42F004021A671A6F42F001021A67C2
:100DB000C5E700BF00380240000047420070004015
:100DC00000F048FE0646524B1B6F13F0020F08D08E
:100DD00000F040FE801B41F288339842F3D9032093
:100DE00088E0EDB9A369002B00F08380484A92683F
:100DF00002F00C02082A51D0022B17D0454B0022DA
:100E00001A6600F027FE0446414B1B6813F0007F72
:100E100042D000F01FFE001B0228F5D9032069E034
:100E20003B4A136C23F080531364DBE7394B0022F9
:100E30001A6600F00FFE0546354B1B6813F0007F65
:100E400006D000F007FE401B0228F5D9032051E030
:100E5000E369226A1343626A43EA8213A26A520870
:100E6000013A43EA0243E26A43EA0263284A5360D2
:100E7000284B01221A6600F0EDFD0446244B1B6846
:100E800013F0007F06D100F0E5FD001B0228F5D924
:100E900003202FE000202DE000202BE0012B2BD0A1
:100EA0001B4B5B6803F48001E269914226D103F099
:100EB0003F02216A8A4223D1616A47F6C0721A4012
:100EC000B2EB811F1ED103F44031A26A5208013AED
:100ED000B1EB024F18D103F07063E26AB3EB026F1B
:100EE00014D1002006E001207047012002E001201B
:100EF00000E0002002B070BD0120FBE70120F9E70F
:100F00000120F7E70120F5E70120F3E70120F1E7F1
:100F1000003802400000474208B5334B9B6803F09D
:100F20000C03042B5BD0082B5BD12F4B5A6802F0CB
:100F30003F025B6813F4800F2CD02B4B5868C0F332
:100F400088104FEA401CBCEB000C6EEB0E0E4FEA13
:100F50008E1343EA9C634FEA8C11B1EB0C0163EBF7
:100F60000E03DB0043EA5173C90011EB000C43F19F
:100F70000003590200234FEA4C2041EADC51FFF7FD
:100F8000D7F9194B5B68C3F3014301335B00B0FB36
:100F9000F3F027E0144B5868C0F388104FEA401C68
:100FA000BCEB000C6EEB0E0E4FEA8E1343EA9C6313
:100FB0004FEA8C11B1EB0C0163EB0E03DB0043EA4B
:100FC0005173C90011EB000C43F100039902002397
:100FD0004FEA8C2041EA9C51FFF7AAF9D1E7034878
:100FE00000E0034808BD00BF0038024000127A004C
:100FF0000024F400002800F09B8070B50D460446E4
:101000004F4B1B6803F00F038B4208D2CBB24C4A04
:101010001370136803F00F038B4240F08B8023683A
:1010200013F0020F17D013F0040F04D0454A936851
:1010300043F4E0539360236813F0080F04D0414A4F
:10104000936843F4604393603E4A936823F0F0034F
:10105000A1680B439360236813F0010F32D06368DB
:10106000012B21D09A1E012A25D9364A126812F086
:10107000020F61D033498A6822F0030213438B6068
:1010800000F0E8FC06462F4B9B6803F00C036268F7
:10109000B3EB820F16D000F0DDFC801B41F28833E9
:1010A0009842F0D9032042E0264A126812F4003F29
:1010B000E0D101203BE0234A126812F0007FD9D131
:1010C000012034E01E4B1B6803F00F03AB4207D92D
:1010D000EAB21B4B1A701B6803F00F03AB422DD111
:1010E000236813F0040F06D0164A936823F4E053E4
:1010F000E1680B439360236813F0080F07D0114A8F
:10110000936823F46043216943EAC1039360FFF7C6
:1011100003FF0C4B9B68C3F303130B4AD35CD8400B
:101120000A4B18600A4B1868FFF7AEFC002070BD30
:10113000012070470120FAE70120F8E70120F6E7D7
:10114000003C024000380240D0FD000808000020AA
:1011500004000020014B1868704700BF0800002001
:1011600008B5FFF7F7FF044B9B68C3F38223034ADC
:10117000D35CD84008BD00BF00380240C8FD00085D
:1011800008B5FFF7E7FF044B9B68C3F34233034AFC
:10119000D35CD84008BD00BF00380240C8FD00083D
:1011A0000F2303600B4B9A6802F0030242609A68B7
:1011B00002F0F00282609A6802F4E052C2609B681A
:1011C000DB0803F4E0530361034B1B6803F00F03D8
:1011D0000B60704700380240003C024000230F2B98
:1011E00000F2F68070B582B066E085684FEA430E83
:1011F000032404FA0EF425EA0405CC6804FA0EF47C
:101200002C438460446824EA02044A68C2F3001252
:101210009A40224342605DE0DC08083450F8242004
:1012200003F00705AD004FF00F0E0EFA05FE22EA9F
:101230000E0E0A69AA4042EA0E0240F824205DE040
:10124000092200E0002202FA0EF22A430234614D24
:1012500045F82420604A94686FEA0C0224EA0C05E1
:101260004E6816F4801F01D04CEA04055A4CA56064
:10127000E46802EA04054E6816F4001F01D04CEA47
:101280000405554CE560646802EA04054E6816F4EE
:10129000003F01D04CEA04054F4C656024682240B1
:1012A0004D6815F4803F01D04CEA04024A4C22609C
:1012B00001330F2B00F28A8001229A400C6804EA65
:1012C000020C32EA0404F3D14C6804F00304013C3C
:1012D000012C8AD94A6802F00302032A09D0C468A3
:1012E0005D000322AA4024EA02048A68AA4022433D
:1012F000C2604A6802F00302022A8DD004684FEAF5
:10130000430E032202FA0EF224EA02044A6802F0B3
:10131000030202FA0EF2224302604A6812F4403FCE
:10132000C6D0002201922D4A546C44F48044546487
:10133000526C02F480420192019A9C08A51C254A35
:1013400052F8255003F0030E4FEA8E0E0F2202FAD8
:101350000EF225EA0205224A90423FF473AF02F5ED
:101360008062904222D002F58062904220D002F545
:10137000806290421ED002F5806290421CD002F53D
:10138000806290421AD002F58062904218D002F535
:101390008062904216D002F58062904214D002F52D
:1013A000806290423FF44CAF0A224CE701224AE7A8
:1013B000022248E7032246E7042244E7052242E7E7
:1013C000062240E707223EE708223CE702B070BD54
:1013D000704700BF00380140003C01400038024027
:1013E000000002400AB181617047090481617047C1
:1013F00030B405682C6824F480242C600468636091
:101400008368402B05D0036899600368DA6030BCBC
:10141000704703689A600368D960F8E710B40368FE
:10142000D9B210390C4AA2FB014212090B4CA25C42
:10143000C2655F2909D923F47F7323F003030433C2
:101440008365806D5DF8044B704723F47F7323F050
:1014500003038365F5E700BFABAAAAAAC0FD000895
:10146000836A826992B9012B0AD0022B02D00BB198
:1014700000207047C36A13F0807F28D10020704796
:10148000C36AB3F1C07F24D000207047B2F5005F7B
:1014900009D0022B25D9032B25D1C36A13F0807FF5
:1014A00023D100207047032B03D8DFE803F0140496
:1014B000140A00207047C36A13F0807F0DD100200A
:1014C0007047C36AB3F1C07F09D000207047012084
:1014D00070470120704701207047012070470120AC
:1014E00070470120704700207047012070470000BE
:1014F00070B5044600F0AEFA002C5BD0054602231E
:1015000084F83530002384F834302268136823F0DF
:101510000103136023681A6812F0010F0AD000F06B
:1015200099FA431B052BF5D920236365032084F822
:10153000350070BD1A68204911406268A0680243F6
:10154000E06802432069024360690243A0690243E4
:10155000E0690243206A02430A43616A04291ED0FB
:101560001A602668756925F00705636A1D43042B18
:1015700007D1A36A1D43E36A1BB12046FFF770FF42
:1015800090B975612046FFF749FFE26D3F23934014
:10159000836000206065012384F83530C9E7E16A83
:1015A000206B01430A43DBE740236365012084F895
:1015B0003500BEE70120BCE73F8010F038B5044697
:1015C000856D90F8340001282BD0012084F8340078
:1015D00094F83500C0B2012804D0002384F83430D8
:1015E000022038BD022084F83500002060652046C6
:1015F000FFF7FEFEE26D3F239340AB602268136865
:1016000043F016031360236C23B12268136843F080
:10161000080313602268136843F00103136000207D
:10162000DFE70220DDE770B50446866D00F012FAB0
:1016300094F83530DBB2022B06D08023636500239B
:1016400084F83430012070BD05462268136823F009
:10165000160313602268536923F080035361236CDF
:10166000E3B12268136823F008031360226813684B
:1016700023F00103136023681B6813F0010F11D0DE
:1016800000F0E8F9431B052BF5D9202363650320FF
:1016900084F83500002384F83430D4E7A36C002BA1
:1016A000DFD1E3E7E26D3F239340B360012384F889
:1016B0003530002084F83400C5E790F83530DBB2CF
:1016C000022B03D08023436501207047052380F857
:1016D00035300268136823F001031360002070475F
:1016E000F0B583B0044600230193724B1D68724B22
:1016F000A3FB0535AD0A876D3E68C26D0823934094
:10170000334210D003681A6812F0040F0BD01A6825
:1017100022F004021A60C26D08239340BB60436D3F
:1017200043F001034365E26D01239340334209D046
:101730002268526912F0800F04D0BB60636D43F0E1
:1017400002036365E26D04239340334209D02268AB
:10175000126812F0020F04D0BB60636D43F0040303
:101760006365E26D10239340334224D022681268EF
:1017700012F0080F1FD0BB6023681A6812F4802F84
:101780000DD01B6813F4002F04D1236C9BB12046AD
:10179000984710E0A36C73B1204698470BE01A6895
:1017A00012F4807F03D11A6822F008021A60236CB9
:1017B0000BB120469847E26D20239340334255D029
:1017C0002268126812F0100F50D0BB6094F83530C8
:1017D000DBB2052B0ED023681A6812F4802F33D0A9
:1017E0001B6813F4002F2AD1636C002B3ED02046D7
:1017F00098473BE02268136823F0160313602268C1
:10180000536923F080035361236CA3B122681368EA
:1018100023F008031360E26D3F239340BB60012374
:1018200084F83530002384F83430236D002B3FD00A
:10183000204698473CE0A36C002BE7D1EBE7E36B35
:10184000A3B12046984711E01A6812F4807F09D1AD
:101850001A6822F010021A60012384F83530002340
:1018600084F83430E36B0BB120469847636DFBB1CD
:10187000636D13F0010F17D0052384F8353022680B
:10188000136823F001031360019B01330193AB4202
:1018900004D823681B6813F0010FF5D1012384F8E5
:1018A0003530002384F83430E36C0BB12046984780
:1018B00003B0F0BD08000020B5814E1B10B582B00A
:1018C00000230193194B1A6C42F080521A641B6C6E
:1018D00003F080530193019B154B01221A6400F021
:1018E000B9F80446134B5B6813F4803F08D100F04D
:1018F000B1F8001BB0F57A7FF4D9032002B010BD17
:101900000B4B01225A6400F0A5F80446094B5B68B2
:1019100013F4003F07D100F09DF8001BB0F57A7F6B
:10192000F4D90320EAE70020E8E700BF00380240CE
:1019300000000E4200700040002807DB00F01F028C
:10194000400901239340024A42F82030704700BF0B
:1019500000E100E0002808DB0901C9B200F16040A5
:1019600000F5614080F80013704700F00F00090196
:10197000C9B2014B1954704714ED00E000B500F0F6
:101980000700C0F1070CBCF1040F28BF4FF0040C96
:10199000031D062B0FD9C31E4FF0FF3E0EFA0CF0AD
:1019A00021EA000199400EFA03FE22EA0E0241EA02
:1019B00002005DF804FB0023EEE70000074AD3684D
:1019C00023F4E0631B041B0C000200F4E0600343FB
:1019D00043F0BF6343F40033D360704700ED00E091
:1019E00010B50446054BD868C0F30220FFF7C6FFC8
:1019F00001462046FFF7AEFF10BD00BF00ED00E03E
:101A000008B5FFF799FF08BD08B50B4B1A6842F4FB
:101A100000721A601A6842F480621A601A6842F40E
:101A200080721A600320FFF7C9FF0F20FFF72CF820
:101A3000FFF708F8002008BD003C0240034A116887
:101A4000034B1B780B441360704700BF78010020E4
:101A500000000020014B1868704700BF780100208B
:101A60007047000090F83D30DBB2012B37D10223E4
:101A700080F83D300268D36843F00103D360036807
:101A8000194A934220D0B3F1804F1DD0A2F57C4279
:101A9000934219D002F58062934215D002F580621C
:101AA000934211D002F5784293420DD002F5705264
:101AB000934209D0A2F59432934205D01A6842F0BD
:101AC00001021A60002070479A6802F00702062A95
:101AD00007D01A6842F001021A6000207047012006
:101AE00070470020704700BF0000014070477047FA
:101AF0007047704770B504460368DE681D6915F0CD
:101B0000020F10D016F0020F0DD06FF002021A6112
:101B10000123037703689B6913F0030F5ED0FFF77F
:101B2000E6FF0023237715F0040F12D016F0040F00
:101B30000FD023686FF004021A6102232377236811
:101B40009B6913F4407F4FD02046FFF7D0FF00235E
:101B5000237715F0080F12D016F0080F0FD0236866
:101B60006FF008021A61042323772368DB6913F0FE
:101B7000030F40D02046FFF7BAFF0023237715F06C
:101B8000100F12D016F0100F0FD023686FF0100254
:101B90001A61082323772368DB6913F4407F31D06F
:101BA0002046FFF7A4FF0023237715F0010F02D092
:101BB00016F0010F2DD115F0800F02D016F0800F16
:101BC0002FD115F0400F02D016F0400F31D115F093
:101BD000200F02D016F0200F33D170BDFFF786FF23
:101BE0002046FFF785FF9CE72046FFF77FFF204652
:101BF000FFF77EFFABE72046FFF778FF2046FFF7B1
:101C000077FFBAE72046FFF771FF2046FFF770FF26
:101C1000C9E723686FF001021A612046FEF712FD42
:101C2000C9E723686FF080021A61204600F0ABF824
:101C3000C7E723686FF040021A612046FFF759FF9B
:101C4000C5E723686FF020021A61204600F09AF879
:101C5000C3E700000368344A904212D0B0F1804FCD
:101C60000FD0A2F57C4290420BD002F580629042E8
:101C700007D002F58062904203D002F5784290428C
:101C800003D123F070034A681343274A90422AD0B5
:101C9000B0F1804F27D0A2F57C42904223D002F5CC
:101CA000806290421FD002F5806290421BD002F504
:101CB0007842904217D002F57052904213D002F54C
:101CC000806290420FD002F5806290420BD0A2F564
:101CD0009832904207D002F58062904203D002F51C
:101CE0008062904203D123F44073CA68134323F007
:101CF00080034A69134303608B68C3620B68836285
:101D0000094B984203D003F58063984201D10B69D7
:101D1000036301234361036913F0010F03D00369D7
:101D200023F00103036170470000014040B310B588
:101D3000044690F83D30F3B1022384F83D3021464B
:101D400051F8040BFFF786FF012384F8463084F82E
:101D50003E3084F83F3084F8403084F8413084F8D5
:101D6000423084F8433084F8443084F8453084F8B5
:101D70003D30002010BD80F83C30FFF771FEDBE7FE
:101D80000120704770477047034AD2F8883043F407
:101D90007003C2F88830704700ED00E000F10803DE
:101DA00043604FF0FF328260C36003610023036031
:101DB000704700230361704743684B609A688A60EC
:101DC000516099600861036801330360704730B463
:101DD0000D68B5F1FF3F11D000F108031C465B68A8
:101DE0001A68AA42FAD963684B6099608C60616096
:101DF000086103680133036030BC70470469F2E78F
:101E00000369416882688A60416851605A68824209
:101E100006D0002202611A68013A1A6018687047F9
:101E200082685A60F5E710B5044601F0D3FCA26B56
:101E3000E36B9A4204D0002401F0EEFC204610BD72
:101E40000124F9E710B5044601F0C4FCA36B23B9E3
:101E5000012401F0E1FC204610BD0024F9E770B533
:101E600004461546866B026C5AB903681BB1002004
:101E70000136A66370BD806800F0ECFF0023A3600C
:101E8000F6E76DB9406803F016F96368226C1344F5
:101E90006360A268934219D3236863602846E7E72A
:101EA000C06803F008F9E368226C51429B1AE360B2
:101EB0002268934202D2A3680B44E360022D01D052
:101EC0000020D5E726B1013E0020D1E72846CFE724
:101ED0000020CDE70346026C6AB110B50846D96808
:101EE0001144D9609C68A14201D31968D960D968AE
:101EF00003F0E1F810BD704738B5054601F06AFC03
:101F000095F8454064B201E0013C64B2002C0ADD62
:101F10006B6A43B105F1240000F0D6FE0028F3D02F
:101F200000F082FFF0E7FF2385F8453001F074FCF4
:101F300001F050FC95F8444064B201E0013C64B209
:101F4000002C0ADD2B6943B105F1100000F0BCFE46
:101F50000028F3D000F068FFF0E7FF2385F8443055
:101F600001F05AFC38BD38B5E0B10D46044601F029
:101F700031FC2368E26B216C01FB0230A060002081
:101F8000A0636360013A02FB0133E360FF2384F83E
:101F9000443084F84530FDB9236963B901F03CFC55
:101FA000012038BD4FF0500383F31188BFF36F8FCA
:101FB000BFF34F8FFEE704F1100000F085FE00280C
:101FC000ECD04FF0E0234FF08052C3F8042DBFF364
:101FD0004F8FBFF36F8FE1E704F11000FFF7DEFED4
:101FE00004F12400FFF7DAFED8E738B51D46049C5B
:101FF0000B4649B92460E063236401212046FFF7C2
:10200000B2FF84F84C5038BD2260F4E740B94FF07D
:10201000500383F31188BFF36F8FBFF34F8FFEE739
:1020200010B584B01C46844653B192B189B94FF0C3
:10203000500383F31188BFF36F8FBFF34F8FFEE719
:102040004FF0500383F31188BFF36F8FBFF34F8FAF
:10205000FEE76AB150230393039B502B13D04FF03C
:10206000500383F31188BFF36F8FBFF34F8FFEE7E9
:102070000029EFD04FF0500383F31188BFF36F8F27
:10208000BFF34F8FFEE7039B012384F84630009493
:102090009DF818306046FFF7A8FF204604B010BD39
:1020A000F0B585B0019288B10F461D460446B1B126
:1020B000022D20D1E36B012B1DD04FF0500383F391
:1020C0001188BFF36F8FBFF34F8FFEE74FF05003C0
:1020D00083F31188BFF36F8FBFF34F8FFEE7036C5D
:1020E000002BE5D04FF0500383F31188BFF36F8FBF
:1020F000BFF34F8FFEE700F09DFE064658B9019BE7
:10210000002B48D04FF0500383F31188BFF36F8F3B
:10211000BFF34F8FFEE700263DE02A4639462046B2
:10212000FFF79DFE636A7BB948B14FF0E0234FF0A3
:102130008052C3F8042DBFF34F8FBFF36F8F01F0B0
:102140006BFB012005B0F0BD04F1240000F0BCFDE4
:102150000028F4D04FF0E0234FF08052C3F8042D54
:10216000BFF34F8FBFF36F8FE9E701F055FB0020FE
:10217000E8E702A800F00AFE012619E0002384F82F
:10218000443021E0002384F8453023E02046FFF767
:10219000B3FE00F077FC01F01DFBA26BE36B9A42EB
:1021A000BBD3022DB9D0019B002BDED0002EE0D096
:1021B00001F032FB00F0CCFB01F00CFB94F8442062
:1021C00052B2B2F1FF3FD9D094F8452052B2B2F1E9
:1021D000FF3FD7D001F020FB01A902A800F0E2FDEB
:1021E000D8B92046FFF71FFE0028CFD0019904F18F
:1021F000100000F035FD2046FFF77EFE00F042FCA7
:102200000028C8D14FF0E0234FF08052C3F8042DCE
:10221000BFF34F8FBFF36F8FBDE72046FFF76CFE14
:1022200000F030FC00208DE72DE9F84390B10F4617
:1022300016461C460546B1B1022C20D1EB6B012B92
:102240001DD04FF0500383F31188BFF36F8FBFF39E
:102250004F8FFEE74FF0500383F31188BFF36F8F6A
:10226000BFF34F8FFEE7036C002BE5D04FF0500318
:1022700083F31188BFF36F8FBFF34F8FFEE701F039
:10228000CFFBEFF311884FF0500383F31188BFF3B6
:102290006F8FBFF34F8FAA6BEB6B9A4206D3022C62
:1022A00004D0002088F31188BDE8F88395F84590A4
:1022B0004FFA89F9AB6B224639462846FFF7CFFD26
:1022C000B9F1FF3F06D009F101035BB285F8453053
:1022D0000120E7E76B6A0BB90120E3E705F1240071
:1022E00000F0F2FC18B126B101203060DAE70120DD
:1022F000D8E70120D6E7F0B585B0019290B10F463E
:102300000446C1B100F096FD064600BB019B002BC0
:102310005ED04FF0500383F31188BFF36F8FBFF38C
:102320004F8FFEE74FF0500383F31188BFF36F8F99
:10233000BFF34F8FFEE7036C002BE3D04FF0500349
:1023400083F31188BFF36F8FBFF34F8FFEE7002633
:102350003EE039462046FFF7BDFD013DA5632369F8
:1023600023B901F059FA012005B0F0BD04F11000C5
:1023700000F0AAFC0028F4D04FF0E0234FF0805288
:10238000C3F8042DBFF34F8FBFF36F8FE9E701F060
:1023900043FA0020E8E702A800F0F8FC012621E05B
:1023A000002384F8443029E0002384F845302BE0F2
:1023B0002046FFF7A1FD00F065FB09E02046FFF78E
:1023C0009BFD00F05FFB2046FFF73CFD00283FD15E
:1023D00001F000FAA56B002DBBD1019B002BD6D0DC
:1023E000002ED8D001F018FA00F0B2FA01F0F2F99C
:1023F00094F844305BB2B3F1FF3FD1D094F845304C
:102400005BB2B3F1FF3FCFD001F006FA01A902A8F9
:1024100000F0C8FC0028D1D12046FFF713FD0028AA
:10242000C6D0019904F1240000F01AFC2046FFF701
:1024300063FD00F027FB0028CAD14FF0E0234FF0E6
:102440008052C3F8042DBFF34F8FBFF36F8FBFE7E8
:10245000002089E70023072B0CD8074A52F83320C5
:102460000AB10133F7E7044A42F8331002EBC30222
:1024700050607047704700BF7C01002070B5044673
:102480000D46164601F0A6F994F844305BB2B3F15C
:10249000FF3F0DD094F845305BB2B3F1FF3F0BD056
:1024A00001F0BAF9A36B5BB12046FFF725FD70BDC3
:1024B000002384F84430EDE7002384F84530EFE74B
:1024C0003246294604F1240000F0E2FBECE700006C
:1024D000084B1B681B6823B9074B4FF0FF321A608B
:1024E0007047044B1B68DB68DB685A68024B1A6054
:1024F000704700BF2C020020C40100202DE9F047E6
:1025000080460D4617469946089EDDF824A00A9C91
:102510009200A521206B02F052FD236B07F180424F
:10252000013A03EB820727F00707A5B34FF0000C31
:10253000BCF10F0F09D815F80C3004EB0C0282F82F
:10254000343013B10CF1010CF2E7002384F843306E
:10255000372E00D93726E662E66400252565201D62
:10256000FFF727FC04F11800FFF723FC2461C6F1F4
:102570003806A6616462656584F858504A4641464B
:10258000384601F0F9F82060BAF1000F01D0CAF81E
:102590000040BDE8F087002384F83430D8E700001D
:1025A00038B5002407E004EB840293000E48184479
:1025B000FFF7F4FB0134372CF5D90C4D2846FFF713
:1025C000EDFB0B4C2046FFF7E9FB0A48FFF7E6FB63
:1025D0000948FFF7E3FB0948FFF7E0FB084B1D60E4
:1025E000084B1C6038BD00BF580200204402002088
:1025F000300200201402002000020020E801002028
:102600002C0200202802002010B5044601F0E2F858
:10261000224A136801331360214B1B685BB1214BC5
:102620001B686BB91E4B1B68DA6AE36A9A4207D8CB
:102630001B4B1C6004E01A4B1C601368012B29D053
:10264000194A1368013313606364E06A174B1B680F
:10265000984201D9154B186000EB8000211D144BE6
:1026600003EB8000FFF7A8FB01F0D6F80D4B1B68C9
:102670007BB10B4B1B68DA6AE36A9A4209D24FF0CE
:10268000E0234FF08052C3F8042DBFF34F8FBFF308
:102690006F8F10BDFFF784FFD2E700BFE401002079
:1026A000B8060020D8010020C8010020DC0100206D
:1026B0005802002010B5044690F8593063B1012B40
:1026C00011D0022B0ED04FF0500383F31188BFF3CB
:1026D0006F8FBFF34F8FFEE7006B00F0D1FF2046F6
:1026E00000F0CEFF10BD00F0CBFFFBE70F4B1B68E7
:1026F000D3B110B501F06EF80D4BDB68DC68201D1E
:10270000FFF77EFB0B4A1368013B1360074A13680F
:10271000013B136001F080F82046FFF7CBFF034B2D
:102720001B68002BE6D110BD704700BFFC010020E4
:1027300000020020E401002008B5FFF7D7FF074B97
:102740001B68012BF9D94FF0E0234FF08052C3F8FA
:10275000042DBFF34F8FBFF36F8FEEE758020020B9
:1027600070B504460D46174B1E68174B18680430A9
:10277000FFF746FBB4F1FF3F0DD03444124B1B680A
:102780005C60A64210D9114B18680F4B19680431D0
:10279000FFF71DFB70BD002DEFD00B4B1968043106
:1027A0000B48FFF709FBF5E70A4B1868064B196859
:1027B0000431FFF70CFB084B1B68A342EAD9064B18
:1027C0001C60E7E7E0010020B80600202802002096
:1027D000E80100202C020020C401002030B587B0A1
:1027E0000B9C7CB10C9DB5B15C250495049D5C2DC2
:1027F0001AD04FF0500383F31188BFF36F8FBFF3EC
:102800004F8FFEE74FF0500383F31188BFF36F8FB4
:10281000BFF34F8FFEE74FF0500383F31188BFF3F0
:102820006F8FBFF34F8FFEE7049D0C9D2C63022436
:1028300085F8594000240394029505AC01940A9C44
:102840000094FFF75BFE0C98FFF7DEFE059807B0DB
:1028500030BD2DE9F04385B00746884614461E4634
:10286000900000F08BFE08B381465C2000F086FEED
:102870000546A8B1C0F83090002380F85930039382
:1028800002900D9B01930C9B0093334622464146D8
:102890003846FFF733FE2846FFF7B6FE012007E073
:1028A000484600F0EDFE4FF0FF3001E04FF0FF3002
:1028B00005B0BDE8F083000010B588B00024059491
:1028C000069407AA06A905A800F0DCFD059B029363
:1028D000069B019300942346079A17491748FFF770
:1028E0007DFF174B1860C0B100F068FB012815D1BF
:1028F0004FF0500383F31188BFF36F8FBFF34F8FF7
:10290000104B4FF0FF321A600F4B01221A600F4B31
:1029100000221A6000F0F8FF03E00020B0F1FF3F52
:1029200001D008B010BD4FF0500383F31188BFF3FE
:102930006F8FBFF34F8FFEE7E0FD000839270008D7
:10294000C0010020C4010020D8010020E0010020C7
:10295000024A136801331360704700BFBC010020B6
:10296000014B1868704700BFE0010020F8B53A4BF2
:102970001B68002B69D1394B1D6801351D60C5B935
:10298000374B1B681B6843B14FF0500383F311882A
:10299000BFF36F8FBFF34F8FFEE7314A1168314BA2
:1029A000186810601960304A136801331360FFF72C
:1029B0008FFD2E4B1B68AB423DD900272C4B1B686B
:1029C000DB6A03EB83039A002A4B9B58012B00D947
:1029D0000127294B1B68002B3CD001273AE0012737
:1029E0001F4B1B681B6843B31D4B1B68DB68DC680F
:1029F00063689D4226D3261D3046FFF701FAA36A7D
:102A00001BB104F11800FFF7FBF9E36A1B4A1268D7
:102A1000934201D9194A136003EB83039A003146AC
:102A200014481044FFF7C8F9E26A114B1B68DB6ACF
:102A30009A42D4D2D4E70027D2E70C4B4FF0FF32B2
:102A40001A60BBE7094A1360B8E70D4A13680133FF
:102A5000136000273846F8BDBC010020E0010020CB
:102A60002C02002028020020CC010020C4010020FC
:102A7000B806002058020020D0010020DC01002010
:102A8000D401002038B5354B1B6843B94FF05003D3
:102A900083F31188BFF36F8FBFF34F8FFEE700F012
:102AA00099FE2E4B1A68013A1A601B68002B4FD111
:102AB0002B4B1B680BB900244BE00024294B1B68EF
:102AC0001BB3284BDB68DC6804F11800FFF798F9AA
:102AD000251D2846FFF794F9E06A234B1B689842AE
:102AE00001D9214B186000EB800029461F4B03EBF6
:102AF0008000FFF761F9E26A1D4B1B68DB6A9A42AE
:102B0000DCD31C4B01221A60D8E70CB1FFF7E0FCC4
:102B1000194B1C6884B9174B1C68D4B14FF0E023E3
:102B20004FF08052C3F8042DBFF34F8FBFF36F8F68
:102B300001240EE0013C07D0FFF718FF0028F9D070
:102B40000C4B01221A60F5E70B4B00221A60E2E7FA
:102B5000002400F061FE204638BD00BFBC0100200B
:102B6000E401002014020020DC01002058020020B3
:102B7000B8060020D0010020D401002010B5A8B173
:102B80000446104B1B6843B14FF0500383F3118888
:102B9000BFF36F8FBFF34F8FFEE7FFF7D9FE002122
:102BA0002046FFF7DDFDFFF76DFF48B94FF0E0234A
:102BB0004FF08052C3F8042DBFF34F8FBFF36F8FD8
:102BC00010BD00BFBC010020204B1B681BB1204B77
:102BD00001221A6070471E4B00221A601D4B1B68B1
:102BE00003EB83018A001C498A585AB90BB1013B97
:102BF000F6E74FF0500383F31188BFF36F8FBFF3F5
:102C00004F8FFEE7084603EB83018A0002445168B8
:102C10004968516003EB830C4FEA8C02083202448E
:102C200091420BD003EB830291000B4A0A44526895
:102C3000D1680A4A1160074A1360704748686246C3
:102C40009100054A0A445060ECE700BFBC01002037
:102C5000D0010020DC01002058020020B80600202E
:102C600058B110B50C46094A11681831FFF7AFF892
:102C700001212046FFF774FD10BD4FF0500383F390
:102C80001188BFF36F8FBFF34F8FFEE7B8060020A8
:102C900038B570B10D4614460A4A11681831FFF76D
:102CA0008BF80CB14FF0FF3521462846FFF758FD51
:102CB00038BD4FF0500383F31188BFF36F8FBFF31C
:102CC0004F8FFEE7B806002038B5C368DC6824B330
:102CD00004F118052846FFF793F8184B1B682BBB27
:102CE000251D2846FFF78CF8E06A154B1B689842B3
:102CF00001D9134B186000EB80002946114B03EB00
:102D00008000FFF759F8E26A0F4B1B68DB6A9A42B2
:102D100011D901200D4B186038BD4FF0500383F3DB
:102D20001188BFF36F8FBFF34F8FFEE72946084826
:102D3000FFF742F8E7E70020EEE700BFBC01002004
:102D4000DC01002058020020B8060020D00100203D
:102D50001402002060B110B5044600F03BFD094BA1
:102D60001B682360084B1B68636000F055FD10BDB5
:102D70004FF0500383F31188BFF36F8FBFF34F8F72
:102D8000FEE700BFCC010020E0010020034B1B68E0
:102D90000360034B1B684360704700BFCC010020F9
:102DA000E0010020F8B5C8B10C460546F9B100F0C5
:102DB00011FD1B4B19686B68C81A2268B2F1FF3FFE
:102DC00026D0184E36682F68B74201D08B4224D9DE
:102DD000824215D80023236001241AE04FF05003EB
:102DE00083F31188BFF36F8FBFF34F8FFEE74FF070
:102DF000500383F31188BFF36F8FBFF34F8FFEE74C
:102E00005B1A134423602846FFF7C0FF002400E04C
:102E1000002400F001FD2046F8BD0124F9E700BFC1
:102E2000E0010020CC010020014B01221A60704714
:102E3000D0010020054B1B6833B1054B1B680BB15B
:102E4000002070470220704701207047D801002001
:102E5000BC01002000283BD038B504461E4B1B683F
:102E6000834208D04FF0500383F31188BFF36F8F74
:102E7000BFF34F8FFEE7036D43B94FF0500383F369
:102E80001188BFF36F8FBFF34F8FFEE7013B0365E0
:102E9000C16AC26C91421DD00BB1002038BD051D26
:102EA0002846FEF7ADFFE06CE062C0F13803A36195
:102EB0000A4B1B68984201D9084B186000EB800050
:102EC0002946074B03EB8000FEF776FF0120E5E77C
:102ED000002070470020E1E7B8060020DC01002058
:102EE00058020020064B1A6813682BB901230360AF
:102EF00023B9D368186870470023F8E700207047AB
:102F0000BC07002008B54160006191420CD8D21A7C
:102F100083699A4201D3012008BD011D094B18683D
:102F2000FEF755FF0020F7E79A4201D2994206D2F8
:102F3000011D054B1868FEF74AFF0020ECE7012051
:102F4000EAE700BFB8070020BC07002030B583B017
:102F500000F040FC114B1B681BB100F05DFC03B09E
:102F600030BD0F4D2846FEF719FF0E4C2046FEF7E8
:102F700015FF0D4B1D600D4B1C60002300930C4B87
:102F80000C4A10210A20FFF741F8044B1860002872
:102F9000E3D00949FFF75EFADFE700BFB40700207E
:102FA000D4070020C0070020BC070020B80700207D
:102FB000BC0600200C070020E8FD000810B588B012
:102FC000FFF7C4FF124B1B68CBB100240594069495
:102FD00007AA06A905A800F061FA059B0293069BC3
:102FE0000193022300932346079A0A490A48FFF7F0
:102FF000F5FB0A4B186010B1012008B010BD4FF06E
:10300000500383F31188BFF36F8FBFF34F8FFEE739
:10301000B4070020F0FD000821330008B0070020AD
:10302000B8B19C4603461848006858B300B585B04F
:1030300000910192029305291CDCFFF7FBFE022898
:1030400010D000231A4669460F480068FFF728F899
:1030500015E04FF0500383F31188BFF36F8FBFF378
:103060004F8FFEE70023069A694607480068FFF77E
:1030700017F804E0002362466946FFF7D5F805B06B
:103080005DF804FB00207047B407002070B582B0E3
:103090001B4B1B681A6862B3DB681E68DC68251D61
:1030A0002846FEF7ADFE236A2046984794F828305C
:1030B00013F0040FECD0A36933449E4207D263603F
:1030C000246129460E4B1868FEF781FEE0E70021D7
:1030D00000910B4632462046FFF7A2FF0028D7D1C9
:1030E0004FF0500383F31188BFF36F8FBFF34F8FFF
:1030F000FEE7044A106802490860136002B070BD20
:10310000BC070020B807002038B50546FFF728FCAB
:103110000446074B1B68834205D800232B60044BF1
:103120001C60204638BDFFF7B1FF01232B60F6E796
:10313000AC07002070B582B006460D4617490968F5
:10314000C968CC68201DFEF75BFE94F828C01CF00F
:10315000040F08D12CF0010C84F828C0236A204603
:10316000984702B070BDA16933462A4631442046D3
:10317000FFF7C8FE0028F1D0002100910B4632462F
:103180002046FFF74DFF0028E8D14FF0500383F3AE
:103190001188BFF36F8FBFF34F8FFEE7BC0700208E
:1031A00070B582B006460C46FFF7D2FB01A8FFF7C8
:1031B000ABFF019B33BB0546E4B9B04213D22246B4
:1031C000711B124B1868FFF759F9FFF75BFCD8B970
:1031D0004FF0E0234FF08052C3F8042DBFF34F8F20
:1031E000BFF36F8F10E0FFF74DFC29463046FFF725
:1031F000A1FF09E0064A126812680AB90124DEE755
:103200001C46DCE7FFF73EFC02B070BDB4070020AF
:10321000B807002010B588B002E0049B002B0FDA3D
:10322000002204A93D4B1868FFF765F8002873D009
:10323000049B002BF1DA07990698059B9847ECE769
:10324000069C636913B1201DFEF7DAFD03A8FFF7A2
:103250005BFF049B092BE3D8DFE803F0050505308D
:1032600037500505303794F8283043F0010384F8CF
:103270002830059BA169024619442046FFF742FE0B
:103280000028CDD0236A2046984794F8283013F0C0
:10329000040FC5D0A269002100910B460598024495
:1032A0002046FFF7BDFE0028BAD14FF0500383F34C
:1032B0001188BFF36F8FBFF34F8FFEE794F828306C
:1032C00023F0010384F82830AAE794F8283043F06B
:1032D000010384F828300599A16131B10346024603
:1032E00001442046FFF70EFE9AE74FF0500383F3A8
:1032F0001188BFF36F8FBFF34F8FFEE794F828302C
:1033000013F0020F04D023F0010384F8283087E77C
:10331000204600F0B5F983E708B010BDB4070020DF
:1033200000B583B001A8FFF7DDFD0199FFF738FF75
:10333000FFF770FFF6E708B54FF0E0231B69FFF7D2
:1033400079FD012800D108BD00F0B4FAFBE70000C8
:10335000EFF305832BB9064B186828B901221A60D0
:1033600070476FF0050070474FF0FF30704700BFA7
:10337000A00E0020EFF3058373B90A4B1B68012BE5
:103380000DD110B50024084BDC77064B02221A60E1
:10339000FFF792FA204610BD6FF0050070474FF01E
:1033A000FF307047A00E002000ED00E0F0B587B0C0
:1033B00000240594EFF3058474BB68B322B3156849
:1033C000936903B918235C1E372C49D8546814F04C
:1033D000010F47D156696EB14FEA960C94682CB133
:1033E000D7685B2F02D9176907B1C6B92CB14FF066
:1033F000FF340EE04FF0800CF0E7D4688CB914690C
:1034000094B14FF0FF3404E01546002418234FF028
:10341000800C012C0AD0ACB1059807B0F0BD012496
:10342000F7E74FF0FF34F4E70024F2E714699268FD
:103430000292019400930B4662462946FFF7CEF9AB
:103440000590E9E705AA019200930B461FFA8CF25A
:103450002946FFF7FEF90128DED000230593DBE7BC
:103460000020DAE70020D8E708B5EFF3058333B989
:1034700008B9002008BDFFF781FB0020FAE76FF0D4
:103480000500F7E7034B0360034B0B6080231360D9
:10349000704700BF440E0020440C0020034B036023
:1034A000034B0B604FF4807313607047E80B0020F0
:1034B000E8070020124A12F0070F1ED0D11D21F09C
:1034C0000701C1F5705313440A460E4802600021FB
:1034D00041601344083B23F007030B480360596025
:1034E0001960991A51601360084B1960084B1960F4
:1034F000084B4FF000421A6070474FF47053E4E7F6
:10350000C40E0020BC0E0020B80E0020B00E00201B
:10351000B40E0020A40E0020164B1A461B688342EE
:10352000FBD3516802EB010C844509D0416800EBE4
:10353000010C634509D00360904219D010607047B8
:103540004068014451601046F0E710B40A4C24680A
:10355000A3420BD05B681944416013681B68036089
:10356000904200D010605DF8044B70470460F7E7AC
:10357000704700BFBC0E0020B80E002038B50446CE
:10358000FFF7E6F9384B1B68B3B1384B1B681C4298
:1035900050D1002C50D004F1080214F0070F02D0D3
:1035A00022F007020832002A55D0314B1B689342A3
:1035B00053D330490C6804E0FFF77CFFE5E7214670
:1035C0001C466368934202D22368002BF7D1264B36
:1035D0001B68A34243D00D68083523680B606368FD
:1035E0009B1A102B10D9A01810F0070F08D04FF01D
:1035F000500383F31188BFF36F8FBFF34F8FFEE744
:1036000043606260FFF788FF626819490B689B1A84
:103610000B60194909688B4201D217490B60134BA3
:103620001B681343636000232360144A136801334B
:10363000136002E0002500E00025FFF723FA15F0F3
:10364000070F0ED04FF0500383F31188BFF36F8F35
:10365000BFF34F8FFEE70025EFE70025EDE70025DC
:10366000EBE7284638BD00BFB80E0020A40E0020AE
:10367000B40E0020BC0E0020B00E0020AC0E0020C6
:10368000002834D038B50446A0F1080550F8043CB1
:10369000174A1268134208D14FF0500383F3118880
:1036A000BFF36F8FBFF34F8FFEE750F8081C41B197
:1036B0004FF0500383F31188BFF36F8FBFF34F8F29
:1036C000FEE723EA020340F8043CFFF741F954F80F
:1036D000041C084A13680B4413602846FFF71CFFBC
:1036E000054A136801331360FFF7CCF938BD704702
:1036F000A40E0020B40E0020A80E002082B00023EB
:1037000001930D4B1B68B3F1FF3F08D04FF05003FE
:1037100083F31188BFF36F8FBFF34F8FFEE74FF036
:10372000500383F31188BFF36F8FBFF34F8F019B5B
:10373000002BFCD002B070470C0000200848006845
:10374000006880F308884FF0000080F3148862B6A8
:1037500061B6BFF34F8FBFF36F8F00DF00BF000074
:1037600008ED00E0DFF80C00016841F47001016031
:103770007047000088ED00E04FF0807340F8043C93
:1037800021F0010140F8081C054B40F80C3C40F8C2
:10379000202C6FF0020340F8243C4438704700BFEF
:1037A000FD360008000000000000000000000000DE
:1037B000074B19680868B0E8F04F80F30988BFF339
:1037C0006F8F4FF0000080F311887047AFF30080D7
:1037D000B80600204FF0500383F31188BFF36F8FBA
:1037E000BFF34F8F0B4A136801331360012B00D0D6
:1037F00070474FF0E023D3F8043D13F0FF0FF7D0EC
:103800004FF0500383F31188BFF36F8FBFF34F8FD7
:10381000FEE700BF0C000020094B1B6843B94FF0C6
:10382000500383F31188BFF36F8FBFF34F8FFEE711
:10383000013B034A13600BB983F31188704700BF43
:103840000C0000200000000000000000000000004C
:10385000EFF30980BFF36F8F154B1A681EF0100F3E
:1038600008BF20ED108A20E9F04F10602DE9090013
:103870004FF0500080F31188BFF34F8FBFF36F8F6D
:10388000FFF7A2F94FF0000080F3118809BC196816
:103890000868B0E8F04F1EF0100F08BFB0EC108AB7
:1038A00080F30988BFF36F8F704700BFAFF30080CC
:1038B000B806002008B54FF0500383F31188BFF31A
:1038C0006F8FBFF34F8FFFF751F828B14FF0E02310
:1038D0004FF08052C3F8042D002383F3118808BDF4
:1038E0004FF0E022002313619361054B1B680549EB
:1038F000A1FB03139B09013B53610723136170472D
:1039000008000020D34D62104FF0E023D3F8002DC3
:103910003D4B9A421CD04FF0E023D3F8002D3B4B97
:103920009A421ED030B583B0394B1A78D2B2019288
:10393000FF221A701B78DBB28DF803309DF803303C
:1039400003F05003334A1370334B07221A601BE015
:103950004FF0500383F31188BFF36F8FBFF34F8F86
:10396000FEE74FF0500383F31188BFF36F8FBFF36F
:103970004F8FFEE7284A1368013B13609DF8033020
:103980005B00DBB28DF803309DF8033013F0800F3D
:10399000F0D1214B1B68032B08D04FF0500383F369
:1039A0001188BFF36F8FBFF34F8FFEE71B021A4AD8
:1039B000136003F4E0631360019BDBB2144A1370DD
:1039C0004FF0E024D4F8203D43F47003C4F8203DC8
:1039D000D4F8203D43F07043C4F8203DFFF780FF4A
:1039E00000250E4B1D60FFF7BDFED4F8343F43F0B9
:1039F0004043C4F8343FFFF7A1FEFFF7E5F8FFF7B7
:103A00007DFE284603B030BD71C20F4170C20F4128
:103A100000E400E0C84A0020C44A00200C00002056
:103A2000EFF305830F2B0FD9114A9B5CDBB2114AD0
:103A300012789A4208D94FF0500383F31188BFF3EC
:103A40006F8FBFF34F8FFEE74FF0E023D3F80C3DAD
:103A500003F4E063084A1268934208D94FF0500318
:103A600083F31188BFF36F8FBFF34F8FFEE770476B
:103A7000F0E300E0C84A0020C44A002010B5034625
:103A80000C4A0D490D48006840B10C4800680344D9
:103A9000521A934206D8094A136010BD0748084CD1
:103AA0000460F2E701F0DAFA0C2303604FF0FF3014
:103AB000F3E700BF0000032000040000CC4A002010
:103AC00078DD00200120704708B501F0C7FA162301
:103AD00003604FF0FF3008BD08B54FF0FF31FFF72E
:103AE000F3FFFEE770B50C461646002506E0AFF37F
:103AF0000080214601F8010B01350C46B542F6DB8A
:103B0000304670BD70B50C461646002504E014F82A
:103B1000010BFCF749FF0135B542F8DB304670BDBB
:103B20004FF0FF3070474FF400534B600020704758
:103B3000012070470020704710B582B00024019426
:103B40000D4B1A6B42F400121A631B6B03F4001343
:103B50000193019B224605210C20FDF741FF0C201B
:103B6000FDF74EFF224605210E20FDF739FF0E20FE
:103B7000FDF746FF02B010BD0038024008B50A4804
:103B80000A4B03604FF4E133436000238360C3605A
:103B900003610C2242618361C36100F0C4F900B982
:103BA00008BDFCF75BFDFBE7944B0020004800409C
:103BB00030B589B0002303930493059306930793CC
:103BC0000268364B9A4201D009B030BD0446002548
:103BD000019503F5F8331A6C42F480221A641A6CCA
:103BE00002F480220192019A02951A6B42F00802B7
:103BF0001A631B6B03F008030293029B4FF440739C
:103C0000039302230493032306930723079303A933
:103C10002348FDF7E3FA2348234B03604FF000638A
:103C200043608560C5604FF48063036145618561D1
:103C30004FF48073C3614FF4403303624562FDF774
:103C400057FC28BB174BE3639C631848184B036071
:103C50004FF000634360402383600023C3604FF450
:103C60008062026143618361C3614FF4403202624A
:103C70004362FDF73DFC70B90C4BA3639C630022CB
:103C800005212720FDF7ACFE2720FDF7B9FE9BE7B5
:103C9000FCF7E4FCD6E7FCF7E1FCEDE70048004068
:103CA000000C0240344B002028600240D44A00201F
:103CB00058600240026802F10C0353E8003F23F011
:103CC000C0030C3242E800310029F3D1202380F8F0
:103CD00041307047026802F10C0353E8003F23F4BF
:103CE00090730C3242E800310029F3D1026802F1EE
:103CF000140353E8003F23F00103143242E800317B
:103D00000029F3D1036B012B05D0202380F842302A
:103D1000002303637047026802F10C0353E8003F7D
:103D200023F010030C3242E800310029F3D1ECE714
:103D300090F84130DBB2212B01D00220704783681C
:103D4000B3F5805F17D0036A5A1C02621A780368C1
:103D50005A60C38C9BB2013B9BB2C3844BB90268CF
:103D6000D36823F08003D3600268D36843F0400334
:103D7000D360002070470369002BE4D1036A1B88DD
:103D80000268C3F308035360036A02330362E0E787
:103D900010B504460268136923F44053C1680B430D
:103DA0001361836802691A4343691A43C3691A435A
:103DB0000168CB6823F4164323F00C031343CB6054
:103DC0000268536923F4407381690B4353610368AC
:103DD000314A934206D002F58062934202D0FDF749
:103DE000BFF901E0FDF7CCF9E369B3F5004F29D045
:103DF0000021031849411B1841F10001C90041EAA3
:103E00005371DB00181863684FEA83024FEA93731B
:103E100041F10001FCF78CFA204AA2FB003149096C
:103E2000642303FB11031B013233A2FB03235B0951
:103E300003F0F00202EB011203F00F0321681344B8
:103E40008B6010BD0023021843EB0301121841F1EF
:103E50000001C90041EA5271D200101841F100017D
:103E6000626892185B41FCF763FA0C4AA2FB0031CE
:103E70004909642303FB1103DB003233A2FB032354
:103E80005B095A0002F4F87202EB011203F0070317
:103E9000216813448B60D4E7001001401F85EB516B
:103EA0002DE9F04383B005460E4617469946DDF8E6
:103EB00028802B681C6836EA04040CBF0124002407
:103EC000BC4228D1B8F1FF3FF3D0FDF7C3FDA0EB12
:103ED0000900404523D8B8F1000F22D02B68DA68DA
:103EE00012F0040FE5D0802EE3D0402EE1D01A6806
:103EF00012F0080FDDD0002401941A6801925B686B
:103F00000193019B2846FFF7E5FE08236B6485F8C3
:103F10004040012000E0002003B0BDE8F083032012
:103F2000FAE70320F8E760B310B5044690F8413093
:103F300013B3242384F841302268D36823F4005358
:103F4000D3602046FFF724FF2268136923F49043CF
:103F500013612268536923F02A0353612268D368EE
:103F600043F40053D36000206064202384F8413080
:103F700084F84230606310BD80F84030FFF718FECF
:103F8000D7E7012070472DE9F04182B01E4690F836
:103F90004130DBB2202B56D104460D469046002915
:103FA00055D00AB901204FE000234364212380F853
:103FB0004130FDF74FFD0746A4F82480A4F8268081
:103FC000A368B3F5805F02D04FF0000814E02369C6
:103FD0002BB34FF000080FE0202384F8413003207A
:103FE00032E038F8023B2268C3F308035360E28CE6
:103FF00092B2013A92B2E284E38C9BB293B1009602
:104000003B46002280212046FFF74AFF0028E3D1EB
:10401000002DE6D015F8012B23685A60E7E7A84683
:104020000025E9E700963B46002240212046FFF7A5
:1040300037FF18B9202384F8413005E0202384F8A5
:104040004130032000E0022002B0BDE8F0810120F1
:10405000FAE7000038B5134690F84120D2B2202A82
:104060002FD1044600292ED00BB9012038BD0162A2
:104070008384C38400224264212084F84100A06B21
:10408000124DC563A06B124D0564A06B114DC56444
:10409000A06B026522680432A06BFDF78FFA2368DB
:1040A0006FF040021A60226802F1140353E8003FE7
:1040B00043F08003143242E800310029F3D100209C
:1040C000D4E70220D2E70120D0E700BF5F4100081B
:1040D000C7410008D741000810B5044603685A6973
:1040E00090F84130DBB2212B0AD023685A6902F0E4
:1040F000400294F84230DBB2222B19D0002010BDD0
:1041000002F08002002AF0D0226802F1140353E882
:10411000003F23F08003143242E800310029F3D13C
:10412000A06B08B1FDF77FFA2046FFF7C3FDDCE77F
:10413000002AE3D0226802F1140353E8003F23F081
:104140004003143242E800310029F3D1E06B08B19A
:10415000FDF769FA2046FFF7BDFDCFE7704708B5C8
:104160000346806B1B681B6813F4807F1AD1002301
:10417000C384026802F1140353E8003F23F0800374
:10418000143242E800310029F3D1026802F10C0335
:1041900053E8003F43F040030C3242E8003100296D
:1041A000F3D108BDFFF7DAFFFBE708B50168CA687D
:1041B00022F04002CA60202280F84120FFF7CEFFA3
:1041C000002008BD704708B5806BFFF7FBFF08BDF6
:1041D00070477047704710B5846B23685A6994F82C
:1041E0004130DBB2212B10D023685A6902F0400223
:1041F00094F84230DBB2222B11D0636C43F01003F1
:1042000063642046FFF7E6FF10BD02F08002002A3B
:10421000EAD00023E3842046FFF74CFDE4E7002AC0
:10422000EBD00023E3852046FFF754FDE5E708B512
:10423000806B0023C385C384FFF7CCFF08BD7047A4
:1042400090F84230DBB2222B69D18368B3F5805FEE
:104250004FD0826AB3F5805F04D0002B56D103693A
:10426000002B53D103685B681370836A0133836248
:10427000C38D9BB2013B9BB2C385002B51D100B5CE
:1042800083B00268D36823F02003D3600268D36848
:1042900023F48073D3600268536923F001035361F0
:1042A000202380F8423000234363036B012B33D17A
:1042B00000230363026802F10C0353E8003F23F07C
:1042C00010030C3242E800310029F3D103681A6868
:1042D00012F0100F06D0002201921A6801925B685A
:1042E0000193019B818DFFF7AAFF002003B05DF8C9
:1042F00004FB0269002AACD1826A03685B68C3F3DD
:1043000008031380836A02338362B1E703685B6842
:1043100003F07F031370A8E7FFF75AFFE5E70220D9
:10432000704700207047000010B582B00446026854
:104330001368D068516913F00F0F09D113F0200FE3
:104340000CD010F0200F09D02046FFF779FF16E0BF
:1043500011F0010115D110F4907F12D1216B0129C8
:1043600079D013F0800F03D010F0800F40F014814B
:1043700013F0400F03D010F0400F40F0118102B055
:1043800010BD13F0010F06D010F4807F03D0626CD3
:1043900042F00102626413F0040F04D019B1626CA0
:1043A00042F00202626413F0020F04D019B1626C91
:1043B00042F00402626413F0080F07D010F0200FDF
:1043C00000D119B1626C42F008026264626C002A8A
:1043D000D5D013F0200F02D010F0200F29D1236880
:1043E0005B6903F04003626C12F0080F00D163B305
:1043F0002046FFF76FFC23685B6913F0400F20D065
:10440000226802F1140353E8003F23F04003143202
:1044100042E800310029F3D1E36B73B1624A1A65B7
:10442000E06BFDF74AF90028A9D0E06B036D9847CF
:10443000A5E72046FFF704FFD1E72046FFF7CAFEB5
:104440009DE72046FFF7C6FE99E72046FFF7C2FE2C
:104450000023636493E713F0100F82D010F0100F65
:104460003FF47FAF002301931368019353680193D6
:10447000019B536913F0400F52D0E26B13685B68E5
:104480009BB2002B3FF47BAFA18D99427FF677AFB3
:10449000E385D369B3F5807F37D0226802F10C033E
:1044A00053E8003F23F480730C3242E800310029C6
:1044B000F3D1226802F1140353E8003F23F0010313
:1044C000143242E800310029F3D1226802F11403CA
:1044D00053E8003F23F04003143242E80031002942
:1044E000F3D1202384F8423000232363226802F1B1
:1044F0000C0353E8003F23F010030C3242E8003174
:104500000029F3D1E06BFDF78EF802236363A18DE0
:10451000E38D9BB2C91A89B22046FFF790FE2EE7C1
:10452000A18DE38D9BB2C91A89B2E38D9BB2002B9A
:104530003FF425AF00293FF422AF226802F10C03BB
:1045400053E8003F23F490730C3242E80030002817
:10455000F3D1226802F1140353E8003F23F0010372
:10456000143242E800300028F3D1202384F842308E
:1045700000232363226802F10C0353E8003F23F079
:1045800010030C3242E800300028F3D102236363A9
:104590002046FFF754FEF2E62046FFF7C9FBEEE6A1
:1045A0002046FFF702FEEAE62F42000808B5806BBE
:1045B00001234363036B012B02D0FFF70AFE08BD02
:1045C000818D4908FFF73BFEF9E708B50346806B8C
:1045D0001B681B6813F4807F2BD10023C3850268FE
:1045E00002F10C0353E8003F23F480730C3242E8DD
:1045F00000310029F3D1026802F1140353E8003FAF
:1046000023F00103143242E800310029F3D102689B
:1046100002F1140353E8003F23F04003143242E850
:1046200000310029F3D1202380F84230036B012BA5
:1046300007D000234363036B012B0FD0FFF7C8FDA6
:1046400008BD026802F10C0353E8003F23F0100399
:104650000C3242E800310029F3D1EAE7818DFFF7FF
:10466000EEFDEDE730B583B00446134681628285E6
:1046700000254564222280F84220C26B1F48D06387
:10468000E26B1F481064E26B1E48D064E26B156554
:1046900020680A46011DE06BFCF790FF0195236836
:1046A0001A6801925B680193019B23695BB12268E0
:1046B00002F10C0353E8003F43F480730C3242E8EC
:1046C00000310029F3D1226802F1140353E8003FBE
:1046D00043F00103143242E800310029F3D122688B
:1046E00002F1140353E8003F43F04003143242E860
:1046F00000310029F3D1002003B030BDCB450008C4
:10470000AD450008D741000808B590F84230DBB24B
:10471000202B08D149B10AB9012008BD0023036349
:10472000FFF7A0FFF9E70220F7E70120F5E7704760
:10473000704770477047704710B50446036803F52B
:104740008052526912F0400F05D003F58052D269B1
:1047500012F0400F47D1236803F58052526912F0DE
:10476000010F05D003F58052D26912F0010F41D13B
:10477000236803F58052526912F4004F28D003F5E4
:104780008052D26912F4004F22D0D4F8882042F02F
:104790000802C4F8882003F58052526912F4005FC1
:1047A00031D003F580535A6922F07F4222F401028E
:1047B00022F45F4222F0FF02C4F88C20DA6922F46E
:1047C000C032DA61E023C4F884302046FFF7B1FF3D
:1047D00023689A6B12F0080F1FD11A4B5B6913F410
:1047E000002F26D110BD03F58053174A5A61FFF7F9
:1047F0009FFFB0E703F580534FF001125A61204646
:10480000FFF795FFB4E703F580535A6948F28061DA
:104810000A40C4F88C205961D7E7DB6A03F06003D3
:10482000C4F894302046FFF785FF0023C4F8943085
:10483000D3E7044B4FF400225A612046FFF77BFF79
:10484000D0E700BF003C014040000100124A12F0D6
:10485000070F1ED0D11D21F00701C1F5705313447D
:104860000A460E480260002141601344083B23F0D1
:1048700007030B48036059601960991A516013606F
:10488000084B1960084B1960084B4FF000421A6042
:1048900070474FF47053E4E7A44C00209C4C002078
:1048A000984C0020904C0020944C00208C4C002010
:1048B000164B1A461B688342FBD3516802EB010C6E
:1048C000844509D0416800EB010C634509D00360C1
:1048D000904219D010607047406801445160104602
:1048E000F0E710B40A4C2468A3420BD05B6819446B
:1048F000416013681B680360904200D010605DF84F
:10490000044B70470460F7E7704700BF9C4C0020E1
:10491000984C002038B50446FEF71AF8364B1B6851
:10492000B3B1364B1B681C424CD1002C4CD004F167
:10493000080214F0070F02D022F007020832002A02
:1049400051D02F4B1B6893424FD32E490C6804E083
:10495000FFF77CFFE5E721461C466368934202D2DD
:104960002368002BF7D1244B1B68A3423FD00D686E
:10497000083523680B6063689B1A102B10D9A018A8
:1049800010F0070F08D04FF0500383F31188BFF3E6
:104990006F8FBFF34F8FFEE743606260FFF788FFC2
:1049A000626817490B689B1A0B60174909688B42AC
:1049B00001D215490B60114B1B6813436360002340
:1049C000236002E0002500E00025FEF75BF815F00B
:1049D000070F0ED04FF0500383F31188BFF36F8F92
:1049E000BFF34F8FFEE70025EFE70025EDE7002539
:1049F000EBE7284638BD00BF984C00208C4C0020C7
:104A0000944C00209C4C0020904C002080B338B582
:104A10000446A0F1080550F8043C164A12681342F7
:104A200008D14FF0500383F31188BFF36F8FBFF3AA
:104A30004F8FFEE750F8081C41B14FF0500383F34D
:104A40001188BFF36F8FBFF34F8FFEE723EA020396
:104A500040F8043CFDF77CFF54F8041C064A136838
:104A60000B4413602846FFF723FFFEF70BF838BD11
:104A7000704700BF8C4C0020944C002050F8043C40
:104A8000024A106823EA0000704700BF8C4C0020E7
:104A900070B505460C46FDF75BFF2046FFF73AFF71
:104AA000064678B175B12846FFF7E8FF083884421A
:104AB00000D3044622462946304600F0FCFA284638
:104AC000FFF7A4FFFDF7DEFF304670BD38B50546A1
:104AD0000C46FDF73DFF05FB04F42046FFF71AFFE7
:104AE0000546034603E0002103F8011B1446621E3D
:104AF000002CF8D1FDF7C6FF284638BD08B505499A
:104B00000A6802440A6004490A6802440A60FFF71E
:104B100001FF08BDA8880020A488002058B110B566
:104B20000446FFF7ABFF044A13681B1A13602046C4
:104B3000FFF76CFF10BD7047A488002038B50C4605
:104B40000C4A13680B4413600B4A13680B44136040
:104B500058B10546FFF792FF074A13681B1A136006
:104B600021462846FFF794FF38BD0846FFF7D2FEDE
:104B7000FAE700BFA8880020A488002010B501FB38
:104B800000F3054C22681A442260044C22681A443F
:104B90002260FFF79BFF10BDA8880020A48800209A
:104BA0002DE9F04107460E46144615A3D3E900232C
:104BB000FBF76EFB0D4680462060616010A3D3E9D1
:104BC000002338463146FBF763FBA260002A01DB75
:104BD000BDE8F081084981FB0231D317C3EB217393
:104BE0000133B8EB030165EBE375216065600349B0
:104BF00001FB0322A260EBE7A12FB84400CA9A3B55
:104C000000CA9A3B0000000070B582B00D46002437
:104C1000009401946846FEF79DF8009E019A4FEAC1
:104C2000461C4CEAD26C53019B1A6CEB060C4FEA03
:104C30004C2C4CEAD35C5B029B1846EB0C0C4FEA05
:104C40008C1141EA93619801C01A61EB0C01801844
:104C50002A4646EB0101FFF7A3FF204602B070BDD4
:104C600008B54FF400620349D0F88C02FFF74CFD01
:104C7000012008BDB488002008B5D0F88C02FFF7E9
:104C80002BFA012008BD70B5D0F88C5295F8413050
:104C9000DBB2202B01D0002070BD144692B2284612
:104CA000FFF7D8F9064646B995F84130DBB2202B1C
:104CB00003D00120FEF7D8FBF5E70EB92046EBE75D
:104CC0000020E9E72DE9F8430D4614461F46D0F8C9
:104CD0008C82002672B6D8F83C301B685868C0F544
:104CE0000060DFF85490C9F8000062B60136012078
:104CF000FEF7BAFB0E4B1B68D9F80020934214D183
:104D0000BE42E7DB002008E00A49C95C29540133B0
:104D1000C3F30A0306490B600130054B1B689A4236
:104D200001D0A042F0D3BDE8F8830020F5E700BF32
:104D3000B0880020B4880020AC880020DFF834D090
:104D4000FDF722F80C480D490D4A002302E0D45823
:104D5000C4500433C4188C42F9D30A4A0A4C0023C5
:104D600001E013600432A242FBD300F07DF9FBF7AF
:104D7000D1FC70470000032000000020100100203B
:104D8000CC0901081001002078DD0020FEE70000BA
:104D9000002310B50446C0E90033C0E90433836042
:104DA00081814366C2818361194608225C3000F02C
:104DB00006F90D4B63620D4BA3620D4BE3620D4B85
:104DC00023630D4B24629C4206D003F16802944297
:104DD00002D0D0339C4205D104F15800BDE8104008
:104DE00000F066B910BD00BF394F00085B4F0008E6
:104DF000934F0008B74F0008B4900020024A0349BF
:104E0000034800F069B800BF140000206D59000885
:104E10002400002041680C4B994210B5044601D093
:104E200000F0A4FDA168094B994202D0204600F091
:104E30009DFDE168064B994204D02046BDE8104034
:104E400000F094BD10BD00BFB49000201C91002064
:104E50008491002010B50B4B0B4C0C4A1A60204675
:104E600000220421FFF794FF04F1680001220921C8
:104E7000FFF78EFF04F1D0000222BDE8104012219E
:104E8000FFF786BFEC910020B4900020FD4D000894
:104E9000014800F00EB900BFF6910020014800F073
:104EA00009B900BFF691002010B50446FFF7F0FFE6
:104EB000236A1BB1BDE81040FFF7F0BF044B23622B
:104EC000044B1B68002BF5D1FFF7C4FFF2E700BFCE
:104ED000154E0008EC9100202DE9F843074688465E
:104EE00014460026D4E90195B9F1010905D52468D5
:104EF000002CF7D13046BDE8F883AB89012B07D9E8
:104F0000B5F90E30013303D029463846C047064371
:104F10006835E9E70FB407B5064904AB086853F8EC
:104F2000042B8168019300F0F7F903B05DF804EBFE
:104F300004B070472000002010B50C46B1F90E10E7
:104F400000F068F80028ABBF636DA3891B1823F439
:104F50008053ACBF6365A38110BD2DE9F0411F46AE
:104F60008B89DB0505460C46164605D5B1F90E10B2
:104F70000223002200F03CF8A389B4F90E1023F4B8
:104F80008053A38132463B462846BDE8F04100F0FD
:104F900053B810B50C46B1F90E1000F029F8431CB7
:104FA000A38915BF606523F4805343F48053A38124
:104FB00018BFA38110BDB1F90E1000F009B802446A
:104FC0000346934200D1704703F8011BF9E7000044
:104FD00038B5064D0023044608462B60FEF7A0FDB9
:104FE000431C02D12B6803B1236038BDF09100202F
:104FF00038B5074D04460846114600222A601A4675
:10500000FEF798FD431C02D12B6803B1236038BD25
:10501000F091002038B5074D04460846114600229D
:105020002A601A46FEF75EFD431C02D12B6803B1CD
:10503000236038BDF091002038B5074D044608467E
:10504000114600222A601A46FEF75CFD431C02D17D
:105050002B6803B1236038BDF0910020014B186824
:10506000704700BF2000002070B50D4D0D4C641B33
:10507000A4100026A64209D10B4D0C4C0AF024FEC8
:10508000641BA4100026A64205D170BD55F8043B50
:1050900098470136EEE755F8043B98470136F2E7AA
:1050A000C0090108C0090108C0090108C8090108B0
:1050B0007047704770470A44914200F1FF3300D1B6
:1050C000704710B511F8014B03F8014F9142F9D127
:1050D00010BD000038B50546002941D051F8043C08
:1050E0000C1F002BB8BFE41800F0E0F81D4A13684D
:1050F00033B9636014602846BDE8384000F0DCB87E
:10510000A34208D9206821188B4201BF19685B6847
:1051100009182160EDE71A465B680BB1A342FAD982
:1051200011685018A0420BD12068014450188342E6
:105130001160E0D118685B68536008441060DAE7DA
:1051400002D90C232B60D6E7206821188B4204BFBC
:1051500019685B68636004BF091821605460CAE77E
:1051600038BD00BFFC91002070B50F4E0C46316871
:10517000054611B900F0D0FC30602146284600F009
:10518000CBFC431C03D14FF0FF34204670BDC41C40
:1051900024F00304A042F8D0211A284600F0BCFCF9
:1051A0000130F2D1EFE700BFF89100202DE9F8437C
:1051B000CD1C25F0030508350C2D38BF0C25002D1E
:1051C000064601DBA94204D90C2333600020BDE868
:1051D000F883DFF8D48000F069F8D8F800301C4676
:1051E00044BB29463046FFF7BFFF431C044658D155
:1051F000D8F800402746002F43D1002C4BD023681D
:105200003946304604EB030900F086FC814542D163
:1052100021686D1A29463046FFF7A6FF01303AD0C3
:1052200023682B442360D8F800305A6862BBC8F862
:1052300000700FE02268521B20D40B2A17D9611985
:10524000A342256018BF5960636808BFC8F8001002
:1052500062514B60304600F02FF804F10B00231D23
:1052600020F00700C21A1CBF1B1AA350AFE76268E8
:10527000A3420CBFC8F800205A60EBE723466468DD
:10528000AEE73C467F68B6E71A465B68A342FBD1AF
:1052900000235360DEE70C233360304600F00CF847
:1052A00094E70560D6E700BFFC9100200148FFF7B6
:1052B00000BF00BFF59100200148FFF7FBBE00BF13
:1052C000F59100209368013B002B10B4936008DA3D
:1052D0009469A34201DB0A2903D15DF8044B00F075
:1052E0006DBB1368581C1060197008465DF8044BBC
:1052F0007047F8B506460F461446D518AC4201D1A2
:10530000002007E014F8011B3A463046FFF7DAFFA9
:10531000431CF3D1F8BD00002DE9F04F0D469DB0C0
:1053200014469846064618B1036A0BB9FFF7BCFD50
:105330006B6ED90705D4AB899A0502D4A86DFFF727
:10534000B8FEAB891B0701D52B699BB929463046AE
:1053500000F072FB70B16B6EDC0704D54FF0FF30CC
:105360001DB0BDE8F08FAB899805F7D4A86DFFF7A5
:10537000A1FEF3E70023099320238DF82930CDF80F
:105380000C803023DFF8AC818DF82A304FF0010912
:1053900023469A4613F8012B0AB1252AF9D1BAEB14
:1053A000040B0BD05B46224629463046FFF7A1FF8F
:1053B000013000F0A780099A5A4409929AF8003007
:1053C000002B00F09F8000234FF0FF32CDE9052332
:1053D0000AF1010A049307938DF853301A93544647
:1053E000052214F8011B5348FAF702FF049AD8B9B2
:1053F000D10644BF20238DF85330130744BF2B231D
:105400008DF853309AF800302A2B15D0079A54465D
:1054100000204FF00A0C214611F8013B303B092BCC
:105420004BD9B0B1079214E0A0EB080309FA03F3DB
:1054300013430493A246D2E7039B191D1B680391F3
:10544000002BBBBF5B4242F0020207930793B8BF39
:10545000049223782E2B0AD163782A2B32D1039B16
:105460001A1D1B68039243EAE37302340593DFF8C5
:10547000D4A0217803225046FAF7BAFE38B1049B33
:10548000A0EB0A004022824013430134049314F835
:10549000011B29488DF828100622FAF7A9FE0028DA
:1054A0003FD0264B1BBB039B073323F00703083376
:1054B0000393099B3B4409936AE70CFB02320C46B9
:1054C0000120A8E700230134059319464FF00A0C88
:1054D000204610F8012B303A092A03D9002BC6D0F8
:1054E0000591C4E70CFB012104460123F0E703AB5F
:1054F00000932A46124B04A93046AFF300800746BA
:10550000781CD6D16B6ED90705D4AB899A0502D425
:10551000A86DFFF7CFFDAB895B063FF51FAF09987C
:105520001EE703AB00932A46054B04A9304600F062
:1055300079F8E4E7F8FD000802FE0008000000002A
:10554000F3520008FEFD00082DE9F0471646984684
:105550008A680B69DDF820909342B8BF1346336028
:1055600091F8432007460C460AB1013333602368A3
:10557000990642BF336802333360256815F006058B
:1055800006D104F1190AE36832689B1AAB4226DCA3
:1055900094F843302268003B18BF012392062BD4B5
:1055A00004F1430241463846C84701301ED0236803
:1055B000226903F00603042B02BFE5683368ED1A85
:1055C000A3680CBF25EAE57500259342C4BF9B1A6A
:1055D000ED1800261A34B5421AD1002008E0012344
:1055E000524641463846C847013003D14FF0FF309C
:1055F000BDE8F0870135C6E7E1185A1C302081F874
:105600004300224494F8451082F843100233C7E760
:105610000123224641463846C8470130E6D00136CC
:10562000D9E700002DE9FF470F7E0C9E782F9146A9
:1056300080460C469A4601F1430207D8622F0AD8E9
:10564000002F00F0D280582F00F0B98004F14206FC
:1056500084F842703AE0A7F16303152BF6D801A154
:1056600051F823F0BD560008D15600084D560008E9
:105670004D5600084D5600084D560008D1560008FA
:105680004D5600084D5600084D5600084D5600086E
:10569000D1570008FB5600088B5700084D560008EC
:1056A0004D560008F35700084D560008FB560008F9
:1056B0004D5600084D5600089357000833681A1DD0
:1056C0001B68326004F1420684F8423001239DE0F9
:1056D00033682068191D3160060601D51D6803E096
:1056E0004506FBD5B3F90050002D03DA2D236D429A
:1056F00084F8433059480A2311E0216833680806CA
:1057000053F8045B02D4490648BFADB26F2F53482B
:10571000336014BF0A230823002184F8431066680D
:10572000A660002EA2BF216821F0040121600DB9FE
:10573000002E4BD01646B5FBF3F103FB1157C75DA6
:1057400006F8017D2F46BB420D46F4D9082B0BD13C
:105750002368DF0708D5236961689942DEBF3023DB
:1057600006F8013C06F1FF36921B2261CDF800A03D
:105770004B4603AA21464046FFF7E6FE01304AD1D8
:105780004FF0FF3004B0BDE8F087236843F02003FA
:1057900023603348782784F84570236831681F06F2
:1057A00051F8045B02D45F0648BFADB23160D9073F
:1057B00044BF43F0200323601DB11023ACE727480A
:1057C000E9E7236823F020032360F6E71646BDE7E8
:1057D000336825686169181D30602E061B6801D585
:1057E000196002E06806FBD5198000232361164684
:1057F000BCE733681A1D32601E68626800213046BB
:10580000FAF7F6FC08B1801B60606368236100232F
:1058100084F84330AAE72369324649464046D047D8
:105820000130ADD023689B0713D4E068039B9842F6
:10583000B8BF1846A6E70123324649464046D0473E
:1058400001309DD00135E36803995B1AAB42F2DC6D
:10585000EBE7002504F11906F5E700BF09FE000893
:105860001AFE0008B1F90C202DE9F0411607054693
:105870000C4654D44B68002B02DC0B6C002B48DD2B
:10588000E66A002E45D0002312F480522F68216A68
:105890002B6030D0626DA389590705D56368D21A91
:1058A000636B0BB1236CD21A0023E66A216A284687
:1058B000B047431CA38906D129681D292BD82A4A41
:1058C0000A41D60727D400226260D90422692260E7
:1058D00004D5421C01D12B6803B96065616B2F6050
:1058E000B9B104F14403994202D02846FFF7F2FB14
:1058F000002363630DE001232846B0470246501C95
:10590000C9D12B68002BC6D01D2B01D0162B1ED160
:105910002F60002022E043F040031BB21BE00F6920
:10592000002FF6D093070E6808BF4B690F6018BFB1
:105930000023A6EB07088B60B8F1000FE9DD216AB0
:10594000A66A43463A462846B047002808DCB4F920
:105950000C3043F04003A3814FF0FF30BDE8F081ED
:105960000744A8EB0008E7E7FEFFBFDF38B50B6987
:1059700005460C4613B90025284638BD18B1036A00
:105980000BB9FFF791FAB4F90C30002BF3D0626E2B
:10599000D00704D4990502D4A06DFFF78AFB2846EE
:1059A0002146FFF75FFF636EDA070546E4D4A3895B
:1059B0009B05E1D4A06DFFF77DFBDDE7F8B50E4652
:1059C0001446054618B1036A0BB9FFF76DFAA369CF
:1059D000A360A3891A0701D5236943B92146284644
:1059E00000F02AF818B14FF0FF373846F8BD2368A9
:1059F0002269981A6369F6B28342374605DC21466C
:105A00002846FFF7B3FF0028EDD1A368013BA36050
:105A100023685A1C22601E706269431C9A4204D09B
:105A2000A389DB07E1D50A2EDFD121462846FFF7FF
:105A30009DFF0028D9D0D6E738B5294B0546186810
:105A40000C4618B1036A0BB9FFF72EFAB4F90C3003
:105A5000190722D4DA0607D409222A6043F040034A
:105A6000A3814FF0FF3033E0580712D5616B41B18D
:105A700004F14403994202D02846FFF72BFB002390
:105A80006363A38923F02403A38100236360236954
:105A90002360A38943F00803A38123694BB9A38939
:105AA00003F42073B3F5007F03D02146284600F0AD
:105AB00097F8B4F90C3013F001020AD00022A2606A
:105AC00062695242A261226942B913F08000C5D1D5
:105AD00038BD990758BF6269A260F4E70020F7E774
